{
  "contractName": "ECTools",
  "abi": [
    {
      "constant": true,
      "inputs": [
        {
          "name": "originalMessage",
          "type": "bytes32"
        },
        {
          "name": "signedMessage",
          "type": "bytes"
        }
      ],
      "name": "recover",
      "outputs": [
        {
          "name": "",
          "type": "address"
        }
      ],
      "payable": false,
      "stateMutability": "pure",
      "type": "function"
    },
    {
      "constant": true,
      "inputs": [
        {
          "name": "_msg",
          "type": "bytes32"
        }
      ],
      "name": "toEthereumSignedMessage",
      "outputs": [
        {
          "name": "",
          "type": "bytes32"
        }
      ],
      "payable": false,
      "stateMutability": "pure",
      "type": "function"
    },
    {
      "constant": true,
      "inputs": [
        {
          "name": "_msg",
          "type": "bytes32"
        },
        {
          "name": "sig",
          "type": "bytes"
        }
      ],
      "name": "prefixedRecover",
      "outputs": [
        {
          "name": "",
          "type": "address"
        }
      ],
      "payable": false,
      "stateMutability": "pure",
      "type": "function"
    }
  ],
  "bytecode": "0x610489610026600b82828239805160001a60731461001957fe5b30600052607381538281f3fe730000000000000000000000000000000000000000301460806040526004361061004b5760003560e01c806319045a2514610050578063380388f114610155578063fc960e151461025a575b600080fd5b6101136004803603604081101561006657600080fd5b81019080803590602001909291908035906020019064010000000081111561008d57600080fd5b82018360208201111561009f57600080fd5b803590602001918460018302840111640100000000831117156100c157600080fd5b91908080601f016020809104026020016040519081016040528093929190818152602001838380828437600081840152601f19601f82011690508083019250505050505050919291929050505061029c565b604051808273ffffffffffffffffffffffffffffffffffffffff1673ffffffffffffffffffffffffffffffffffffffff16815260200191505060405180910390f35b6102186004803603604081101561016b57600080fd5b81019080803590602001909291908035906020019064010000000081111561019257600080fd5b8201836020820111156101a457600080fd5b803590602001918460018302840111640100000000831117156101c657600080fd5b91908080601f016020809104026020016040519081016040528093929190818152602001838380828437600081840152601f19601f82011690508083019250505050505050919291929050505061037e565b604051808273ffffffffffffffffffffffffffffffffffffffff1673ffffffffffffffffffffffffffffffffffffffff16815260200191505060405180910390f35b6102866004803603602081101561027057600080fd5b810190808035906020019092919050505061039f565b6040518082815260200191505060405180910390f35b60008060008060418551146102b75760009350505050610378565b6020850151925060408501519150606085015160001a9050601b8160ff1610156102e257601b810190505b601b8160ff16141580156102fa5750601c8160ff1614155b1561030b5760009350505050610378565b60018682858560405160008152602001604052604051808581526020018460ff1660ff1681526020018381526020018281526020019450505050506020604051602081039080840390855afa158015610368573d6000803e3d6000fd5b5050506020604051035193505050505b92915050565b60008061038a8461039f565b9050610396818461029c565b91505092915050565b600060606040518060400160405280601c81526020017f19457468657265756d205369676e6564204d6573736167653a0a333200000000815250905080836040516020018083805190602001908083835b6020831061041357805182526020820191506020810190506020830392506103f0565b6001836020036101000a038019825116818451168082178552505050505050905001828152602001925050506040516020818303038152906040528051906020012091505091905056fea165627a7a72305820da6cc4f4541b85f2b08b9478f00476c671396cfb97871071f1b1a1badfa7cc660029",
  "source": "pragma solidity >=0.4.21 <0.6.0;\n\nlibrary ECTools {\n\n  /**\n   * @dev Recover signer address from a message by using his signature\n   * @param originalMessage bytes32 message, the originalMessage is the signed message. What is recovered is the signer address.\n   * @param signedMessage bytes signature\n   */\n  function recover(bytes32 originalMessage, bytes memory signedMessage) public pure returns (address) {\n    bytes32 r;\n    bytes32 s;\n    uint8 v;\n\n    //Check the signature length\n    if (signedMessage.length != 65) {\n      return (address(0));\n    }\n\n    // Divide the signature in r, s and v variables\n    assembly {\n      r := mload(add(signedMessage, 32))\n      s := mload(add(signedMessage, 64))\n      v := byte(0, mload(add(signedMessage, 96)))\n    }\n\n    // Version of signature should be 27 or 28, but 0 and 1 are also possible versions\n    if (v < 27) {\n      v += 27;\n    }\n\n    // If the version is correct return the signer address\n    if (v != 27 && v != 28) {\n      return (address(0));\n    } else {\n      return ecrecover(originalMessage, v, r, s);\n    }\n  }\n\n  function toEthereumSignedMessage(bytes32 _msg) public pure returns (bytes32) {\n    bytes memory prefix = \"\\x19Ethereum Signed Message:\\n32\";\n    return keccak256(abi.encodePacked(prefix, _msg));\n  }\n\n  function prefixedRecover(bytes32 _msg, bytes memory sig) public pure returns (address) {\n    bytes32 ethSignedMsg = toEthereumSignedMessage(_msg);\n    return recover(ethSignedMsg, sig);\n  }\n}",
  "sourcePath": "/Users/nico/Desktop/ethberlin/eth-wallet/contracts/libs/ECTools.sol",
  "compiler": {
    "name": "solc",
    "version": "0.5.8+commit.23d335f2.Emscripten.clang"
  },
  "schemaVersion": "3.0.11",
  "updatedAt": "2019-08-23T21:36:47.630Z",
  "devdoc": {
    "methods": {
      "recover(bytes32,bytes)": {
        "details": "Recover signer address from a message by using his signature",
        "params": {
          "originalMessage": "bytes32 message, the originalMessage is the signed message. What is recovered is the signer address.",
          "signedMessage": "bytes signature"
        }
      }
    }
  },
  "userdoc": {
    "methods": {}
  }
}