{
  "contractName": "Wallet",
  "abi": [
    {
      "inputs": [
        {
          "name": "_master",
          "type": "address"
        }
      ],
      "payable": false,
      "stateMutability": "nonpayable",
      "type": "constructor"
    },
    {
      "payable": true,
      "stateMutability": "payable",
      "type": "fallback"
    },
    {
      "constant": true,
      "inputs": [
        {
          "name": "_raw",
          "type": "bytes32"
        },
        {
          "name": "_sig",
          "type": "bytes"
        }
      ],
      "name": "getSigner",
      "outputs": [
        {
          "name": "signer",
          "type": "address"
        }
      ],
      "payable": false,
      "stateMutability": "pure",
      "type": "function"
    },
    {
      "constant": true,
      "inputs": [
        {
          "name": "_target",
          "type": "address"
        },
        {
          "name": "_value",
          "type": "uint256"
        },
        {
          "name": "_data",
          "type": "bytes"
        },
        {
          "name": "_sig",
          "type": "bytes"
        }
      ],
      "name": "isValidSignature",
      "outputs": [
        {
          "name": "isValid",
          "type": "bool"
        }
      ],
      "payable": false,
      "stateMutability": "view",
      "type": "function"
    },
    {
      "constant": false,
      "inputs": [
        {
          "name": "_target",
          "type": "address[]"
        },
        {
          "name": "_value",
          "type": "uint256[]"
        },
        {
          "name": "_data",
          "type": "bytes[]"
        },
        {
          "name": "_dataHashSignature",
          "type": "bytes[]"
        }
      ],
      "name": "execute",
      "outputs": [
        {
          "name": "",
          "type": "bool"
        }
      ],
      "payable": false,
      "stateMutability": "nonpayable",
      "type": "function"
    }
  ],
  "bytecode": "0x608060405234801561001057600080fd5b50604051602080610e61833981018060405261002f919081019061008a565b806000806101000a81548173ffffffffffffffffffffffffffffffffffffffff021916908373ffffffffffffffffffffffffffffffffffffffff160217905550506100fc565b600081519050610084816100e5565b92915050565b60006020828403121561009c57600080fd5b60006100aa84828501610075565b91505092915050565b60006100be826100c5565b9050919050565b600073ffffffffffffffffffffffffffffffffffffffff82169050919050565b6100ee816100b3565b81146100f957600080fd5b50565b610d568061010b6000396000f3fe6080604052600436106100345760003560e01c80633cffe599146100365780634ad3af7814610073578063f7b2ec0d146100b0575b005b34801561004257600080fd5b5061005d600480360361005891908101906106a1565b6100ed565b60405161006a9190610a2c565b60405180910390f35b34801561007f57600080fd5b5061009a60048036036100959190810190610734565b610191565b6040516100a79190610a2c565b60405180910390f35b3480156100bc57600080fd5b506100d760048036036100d291908101906107f7565b61036f565b6040516100e49190610a11565b60405180910390f35b600080858585604051602001610105939291906109c1565b6040516020818303038152906040528051906020012090506000610129828561036f565b90506000602086015190506000809054906101000a900473ffffffffffffffffffffffffffffffffffffffff1673ffffffffffffffffffffffffffffffffffffffff168273ffffffffffffffffffffffffffffffffffffffff16149350505050949350505050565b60008484848460008090505b8451811015610214576101fe8582815181106101b557fe5b60200260200101518583815181106101c957fe5b60200260200101518584815181106101dd57fe5b60200260200101518585815181106101f157fe5b60200260200101516100ed565b61020757600080fd5b808060010191505061019d565b5060088951111561025a576040517f08c379a000000000000000000000000000000000000000000000000000000000815260040161025190610a97565b60405180910390fd5b60008090505b895181101561035e5760008a828151811061027757fe5b602002602001015173ffffffffffffffffffffffffffffffffffffffff168a83815181106102a157fe5b60200260200101518a84815181106102b557fe5b60200260200101516040516102ca91906109fa565b60006040518083038185875af1925050503d8060008114610307576040519150601f19603f3d011682016040523d82523d6000602084013e61030c565b606091505b5050905080610350576040517f08c379a000000000000000000000000000000000000000000000000000000000815260040161034790610a77565b60405180910390fd5b508080600101915050610260565b506001945050505050949350505050565b600073__ECTools_______________________________63380388f184846040518363ffffffff1660e01b81526004016103aa929190610a47565b60206040518083038186803b1580156103c257600080fd5b505af41580156103d6573d6000803e3d6000fd5b505050506040513d601f19601f820116820180604052506103fa9190810190610678565b905092915050565b60008135905061041181610cd7565b92915050565b60008151905061042681610cd7565b92915050565b600082601f83011261043d57600080fd5b813561045061044b82610ae4565b610ab7565b9150818183526020840193506020810190508385602084028201111561047557600080fd5b60005b838110156104a5578161048b8882610402565b845260208401935060208301925050600181019050610478565b5050505092915050565b600082601f8301126104c057600080fd5b81356104d36104ce82610b0c565b610ab7565b9150818183526020840193506020810190508360005b8381101561051957813586016104ff88826105bb565b8452602084019350602083019250506001810190506104e9565b5050505092915050565b600082601f83011261053457600080fd5b813561054761054282610b34565b610ab7565b9150818183526020840193506020810190508385602084028201111561056c57600080fd5b60005b8381101561059c57816105828882610663565b84526020840193506020830192505060018101905061056f565b5050505092915050565b6000813590506105b581610cee565b92915050565b600082601f8301126105cc57600080fd5b81356105df6105da82610b5c565b610ab7565b915080825260208301602083018583830111156105fb57600080fd5b610606838284610c49565b50505092915050565b600082601f83011261062057600080fd5b813561063361062e82610b88565b610ab7565b9150808252602083016020830185838301111561064f57600080fd5b61065a838284610c49565b50505092915050565b60008135905061067281610d05565b92915050565b60006020828403121561068a57600080fd5b600061069884828501610417565b91505092915050565b600080600080608085870312156106b757600080fd5b60006106c587828801610402565b94505060206106d687828801610663565b935050604085013567ffffffffffffffff8111156106f357600080fd5b6106ff8782880161060f565b925050606085013567ffffffffffffffff81111561071c57600080fd5b6107288782880161060f565b91505092959194509250565b6000806000806080858703121561074a57600080fd5b600085013567ffffffffffffffff81111561076457600080fd5b6107708782880161042c565b945050602085013567ffffffffffffffff81111561078d57600080fd5b61079987828801610523565b935050604085013567ffffffffffffffff8111156107b657600080fd5b6107c2878288016104af565b925050606085013567ffffffffffffffff8111156107df57600080fd5b6107eb878288016104af565b91505092959194509250565b6000806040838503121561080a57600080fd5b6000610818858286016105a6565b925050602083013567ffffffffffffffff81111561083557600080fd5b6108418582860161060f565b9150509250929050565b61085481610bf7565b82525050565b61086b61086682610bf7565b610c8b565b82525050565b61087a81610c09565b82525050565b61088981610c15565b82525050565b600061089a82610bbf565b6108a48185610bca565b93506108b4818560208601610c58565b6108bd81610cb9565b840191505092915050565b60006108d382610bbf565b6108dd8185610bdb565b93506108ed818560208601610c58565b80840191505092915050565b600061090482610bb4565b61090e8185610bdb565b935061091e818560208601610c58565b80840191505092915050565b6000610937601683610be6565b91507f4578637574696e67204d6574615478204661696c6564000000000000000000006000830152602082019050919050565b6000610977601d83610be6565b91507f546f6f206d616e792062617463686564207472616e73616374696f6e730000006000830152602082019050919050565b6109bb6109b682610c3f565b610caf565b82525050565b60006109cd828661085a565b6014820191506109dd82856109aa565b6020820191506109ed82846108c8565b9150819050949350505050565b6000610a0682846108f9565b915081905092915050565b6000602082019050610a26600083018461084b565b92915050565b6000602082019050610a416000830184610871565b92915050565b6000604082019050610a5c6000830185610880565b8181036020830152610a6e818461088f565b90509392505050565b60006020820190508181036000830152610a908161092a565b9050919050565b60006020820190508181036000830152610ab08161096a565b9050919050565b6000604051905081810181811067ffffffffffffffff82111715610ada57600080fd5b8060405250919050565b600067ffffffffffffffff821115610afb57600080fd5b602082029050602081019050919050565b600067ffffffffffffffff821115610b2357600080fd5b602082029050602081019050919050565b600067ffffffffffffffff821115610b4b57600080fd5b602082029050602081019050919050565b600067ffffffffffffffff821115610b7357600080fd5b601f19601f8301169050602081019050919050565b600067ffffffffffffffff821115610b9f57600080fd5b601f19601f8301169050602081019050919050565b600081519050919050565b600081519050919050565b600082825260208201905092915050565b600081905092915050565b600082825260208201905092915050565b6000610c0282610c1f565b9050919050565b60008115159050919050565b6000819050919050565b600073ffffffffffffffffffffffffffffffffffffffff82169050919050565b6000819050919050565b82818337600083830152505050565b60005b83811015610c76578082015181840152602081019050610c5b565b83811115610c85576000848401525b50505050565b6000610c9682610c9d565b9050919050565b6000610ca882610cca565b9050919050565b6000819050919050565b6000601f19601f8301169050919050565b60008160601b9050919050565b610ce081610bf7565b8114610ceb57600080fd5b50565b610cf781610c15565b8114610d0257600080fd5b50565b610d0e81610c3f565b8114610d1957600080fd5b5056fea265627a7a723058206f9a3baa4b236806be26d29e6989e2a43c6b50a0151329f12f899abb4edcceef6c6578706572696d656e74616cf50037",
  "source": "pragma solidity >=0.4.21 <0.6.0;\npragma experimental ABIEncoderV2;\n\nimport './libs/ECTools.sol';\n\n/// @title  Wallet\n/// @author Nico Vergauwen <vergauwennico@gmail.com>\n/// @notice Wallet contract that can execute meta transactions on behalf of authorized signers\ncontract Wallet {\n\n    /// @notice master owner \n    address payable master;\n\n    /// @dev Access modifier that requires 'msg.sender' to be 'master'\n    modifier onlyMaster() {\n        require(msg.sender == master, \"Unauthorized\");\n        _;\n    }\n\n    /// @dev Access modifier that checks whether meta transactions are signed by authorized EOA's\n    modifier onlyMasterOrActor(address[] memory target, uint256[] memory value, bytes[] memory data, bytes[] memory dataHashSignature) {\n\t\tfor(uint i=0; i< target.length; i++) {\n            require(isValidSignature(target[i], value[i], data[i], dataHashSignature[i]));\n\t\t}\n\t\t_;\n\t}\n\n    /// @notice Sets the master address upon deployment\n    /// @param _master (address) Ethereum address for the master \n    constructor(address payable _master) public {\n        master = _master;\n    }\n\n    /// @notice Fallback \n    function() external payable {}\n\n    /// @notice Get the signer of a transaction through ecrecover\n    /// @param _raw (bytes32) keccak256 hash of the ABI encoded transaction data \n    /// @param _sig (bytes) the signature resulting from signing 'raw'\n    /// @return signer (address) the EOA that signed the data \n    function getSigner(bytes32 _raw, bytes memory _sig) public pure returns(address signer) {\n\t\treturn ECTools.prefixedRecover(_raw, _sig);\n\t}\n\n    /// @notice Checks whether the signer is an authorized EOA\n    /// @param _target (address) contract target address \n    /// @param _value (uint256) Wei amount being send in the transaction \n    /// @param _data (bytes) data being send in the transaction \n    /// @param _sig (bytes) the signature of the transaction data \n    /// @return isValid (bool) true/false based on whether the signer is master or an actor that has access rights to the method at 'target'\n    function isValidSignature(address _target, uint256 _value, bytes memory _data, bytes memory _sig) public view returns (bool isValid) {\n        bytes32 dataHash = keccak256(abi.encodePacked(_target, _value, _data));\n        address signer = getSigner(dataHash, _sig);\n        bytes4 method;\n        assembly {\n            method := mload(add(_data, 0x20))\n        }\n        return (signer == master);\n    }\n\n    /// @notice Execute a batch of meta transactions atomically\n    /// @dev Anyone can execute this but only transactions signed by master or actor (if valid method) are accepted \n    /// @param _target (address[]) Array of contract addresses\n    /// @param _value (uint256[]) Array of wei amounts being sent in the respective transactions \n    /// @param _data (bytes[]) Array of ABI encoded transaction data \n    /// @param _dataHashSignature (bytes[]) Array of transaction signatures for the respective transaction data\n    /// @return (bool) returns true if all transactions in the batch succeeded\n\tfunction execute(address[] memory _target, uint256[] memory _value, bytes[] memory _data, bytes[] memory _dataHashSignature) public onlyMasterOrActor(_target, _value, _data, _dataHashSignature) returns (bool) {\n\t\trequire(_target.length <= 8, 'Too many batched transactions');\n        for(uint i=0; i< _target.length; i++) {\n\t\t\t(bool success,) = _target[i].call.value(_value[i])(_data[i]);\n\t\t\trequire(success, 'Excuting MetaTx Failed');\n\t\t}\n\t\treturn true;\n    }\n}",
  "sourcePath": "/Users/nico/Desktop/ethberlin/eth-wallet/contracts/Wallet.sol",
  "compiler": {
    "name": "solc",
    "version": "0.5.8+commit.23d335f2.Emscripten.clang"
  },
  "schemaVersion": "3.0.11",
  "updatedAt": "2019-08-24T00:41:38.595Z",
  "devdoc": {
    "author": "Nico Vergauwen <vergauwennico@gmail.com>",
    "methods": {
      "constructor": {
        "params": {
          "_master": "(address) Ethereum address for the master "
        }
      },
      "execute(address[],uint256[],bytes[],bytes[])": {
        "details": "Anyone can execute this but only transactions signed by master or actor (if valid method) are accepted ",
        "params": {
          "_data": "(bytes[]) Array of ABI encoded transaction data ",
          "_dataHashSignature": "(bytes[]) Array of transaction signatures for the respective transaction data",
          "_target": "(address[]) Array of contract addresses",
          "_value": "(uint256[]) Array of wei amounts being sent in the respective transactions "
        },
        "return": "(bool) returns true if all transactions in the batch succeeded"
      },
      "getSigner(bytes32,bytes)": {
        "params": {
          "_raw": "(bytes32) keccak256 hash of the ABI encoded transaction data ",
          "_sig": "(bytes) the signature resulting from signing 'raw'"
        },
        "return": "signer (address) the EOA that signed the data "
      },
      "isValidSignature(address,uint256,bytes,bytes)": {
        "params": {
          "_data": "(bytes) data being send in the transaction ",
          "_sig": "(bytes) the signature of the transaction data ",
          "_target": "(address) contract target address ",
          "_value": "(uint256) Wei amount being send in the transaction "
        },
        "return": "isValid (bool) true/false based on whether the signer is master or an actor that has access rights to the method at 'target'"
      }
    },
    "title": "Wallet"
  },
  "userdoc": {
    "methods": {
      "constructor": "Sets the master address upon deployment",
      "execute(address[],uint256[],bytes[],bytes[])": {
        "notice": "Execute a batch of meta transactions atomically"
      },
      "getSigner(bytes32,bytes)": {
        "notice": "Get the signer of a transaction through ecrecover"
      },
      "isValidSignature(address,uint256,bytes,bytes)": {
        "notice": "Checks whether the signer is an authorized EOA"
      }
    },
    "notice": "Wallet contract that can execute meta transactions on behalf of authorized signers"
  }
}