{
  "contractName": "Wallet",
  "abi": [
    {
      "inputs": [
        {
          "name": "_master",
          "type": "address"
        }
      ],
      "payable": false,
      "stateMutability": "nonpayable",
      "type": "constructor"
    },
    {
      "payable": true,
      "stateMutability": "payable",
      "type": "fallback"
    },
    {
      "constant": true,
      "inputs": [
        {
          "name": "_raw",
          "type": "bytes32"
        },
        {
          "name": "_sig",
          "type": "bytes"
        }
      ],
      "name": "getSigner",
      "outputs": [
        {
          "name": "signer",
          "type": "address"
        }
      ],
      "payable": false,
      "stateMutability": "pure",
      "type": "function"
    },
    {
      "constant": true,
      "inputs": [
        {
          "name": "_target",
          "type": "address"
        },
        {
          "name": "_value",
          "type": "uint256"
        },
        {
          "name": "_data",
          "type": "bytes"
        },
        {
          "name": "_sig",
          "type": "bytes"
        }
      ],
      "name": "isValidSignature",
      "outputs": [
        {
          "name": "isValid",
          "type": "bool"
        }
      ],
      "payable": false,
      "stateMutability": "view",
      "type": "function"
    },
    {
      "constant": false,
      "inputs": [
        {
          "name": "_target",
          "type": "address[]"
        },
        {
          "name": "_value",
          "type": "uint256[]"
        },
        {
          "name": "_data",
          "type": "bytes[]"
        },
        {
          "name": "_dataHashSignature",
          "type": "bytes[]"
        },
        {
          "name": "_nonce",
          "type": "uint256[]"
        }
      ],
      "name": "execute",
      "outputs": [
        {
          "name": "",
          "type": "bool"
        }
      ],
      "payable": false,
      "stateMutability": "nonpayable",
      "type": "function"
    }
  ],
  "bytecode": "0x608060405234801561001057600080fd5b50604051602080610f57833981018060405261002f919081019061008a565b806000806101000a81548173ffffffffffffffffffffffffffffffffffffffff021916908373ffffffffffffffffffffffffffffffffffffffff160217905550506100fc565b600081519050610084816100e5565b92915050565b60006020828403121561009c57600080fd5b60006100aa84828501610075565b91505092915050565b60006100be826100c5565b9050919050565b600073ffffffffffffffffffffffffffffffffffffffff82169050919050565b6100ee816100b3565b81146100f957600080fd5b50565b610e4c8061010b6000396000f3fe6080604052600436106100345760003560e01c80633cffe599146100365780638a7d339214610073578063f7b2ec0d146100b0575b005b34801561004257600080fd5b5061005d6004803603610058919081019061070b565b6100ed565b60405161006a9190610b02565b60405180910390f35b34801561007f57600080fd5b5061009a6004803603610095919081019061079e565b610191565b6040516100a79190610b02565b60405180910390f35b3480156100bc57600080fd5b506100d760048036036100d2919081019061088d565b6103d9565b6040516100e49190610ae7565b60405180910390f35b60008085858560405160200161010593929190610a97565b604051602081830303815290604052805190602001209050600061012982856103d9565b90506000602086015190506000809054906101000a900473ffffffffffffffffffffffffffffffffffffffff1673ffffffffffffffffffffffffffffffffffffffff168273ffffffffffffffffffffffffffffffffffffffff16149350505050949350505050565b60008585858560008090505b8451811015610214576101fe8582815181106101b557fe5b60200260200101518583815181106101c957fe5b60200260200101518584815181106101dd57fe5b60200260200101518585815181106101f157fe5b60200260200101516100ed565b61020757600080fd5b808060010191505061019d565b5060088a51111561025a576040517f08c379a000000000000000000000000000000000000000000000000000000000815260040161025190610b8d565b60405180910390fd5b60008090505b8a518110156103c75760015487828151811061027857fe5b6020026020010151116102c0576040517f08c379a00000000000000000000000000000000000000000000000000000000081526004016102b790610b6d565b60405180910390fd5b60008b82815181106102ce57fe5b602002602001015173ffffffffffffffffffffffffffffffffffffffff168b83815181106102f857fe5b60200260200101518b848151811061030c57fe5b60200260200101516040516103219190610ad0565b60006040518083038185875af1925050503d806000811461035e576040519150601f19603f3d011682016040523d82523d6000602084013e610363565b606091505b50509050600160008154809291906001019190505550806103b9576040517f08c379a00000000000000000000000000000000000000000000000000000000081526004016103b090610b4d565b60405180910390fd5b508080600101915050610260565b50600194505050505095945050505050565b600073__ECTools_______________________________63380388f184846040518363ffffffff1660e01b8152600401610414929190610b1d565b60206040518083038186803b15801561042c57600080fd5b505af4158015610440573d6000803e3d6000fd5b505050506040513d601f19601f8201168201806040525061046491908101906106e2565b905092915050565b60008135905061047b81610dcd565b92915050565b60008151905061049081610dcd565b92915050565b600082601f8301126104a757600080fd5b81356104ba6104b582610bda565b610bad565b915081818352602084019350602081019050838560208402820111156104df57600080fd5b60005b8381101561050f57816104f5888261046c565b8452602084019350602083019250506001810190506104e2565b5050505092915050565b600082601f83011261052a57600080fd5b813561053d61053882610c02565b610bad565b9150818183526020840193506020810190508360005b8381101561058357813586016105698882610625565b845260208401935060208301925050600181019050610553565b5050505092915050565b600082601f83011261059e57600080fd5b81356105b16105ac82610c2a565b610bad565b915081818352602084019350602081019050838560208402820111156105d657600080fd5b60005b8381101561060657816105ec88826106cd565b8452602084019350602083019250506001810190506105d9565b5050505092915050565b60008135905061061f81610de4565b92915050565b600082601f83011261063657600080fd5b813561064961064482610c52565b610bad565b9150808252602083016020830185838301111561066557600080fd5b610670838284610d3f565b50505092915050565b600082601f83011261068a57600080fd5b813561069d61069882610c7e565b610bad565b915080825260208301602083018583830111156106b957600080fd5b6106c4838284610d3f565b50505092915050565b6000813590506106dc81610dfb565b92915050565b6000602082840312156106f457600080fd5b600061070284828501610481565b91505092915050565b6000806000806080858703121561072157600080fd5b600061072f8782880161046c565b9450506020610740878288016106cd565b935050604085013567ffffffffffffffff81111561075d57600080fd5b61076987828801610679565b925050606085013567ffffffffffffffff81111561078657600080fd5b61079287828801610679565b91505092959194509250565b600080600080600060a086880312156107b657600080fd5b600086013567ffffffffffffffff8111156107d057600080fd5b6107dc88828901610496565b955050602086013567ffffffffffffffff8111156107f957600080fd5b6108058882890161058d565b945050604086013567ffffffffffffffff81111561082257600080fd5b61082e88828901610519565b935050606086013567ffffffffffffffff81111561084b57600080fd5b61085788828901610519565b925050608086013567ffffffffffffffff81111561087457600080fd5b6108808882890161058d565b9150509295509295909350565b600080604083850312156108a057600080fd5b60006108ae85828601610610565b925050602083013567ffffffffffffffff8111156108cb57600080fd5b6108d785828601610679565b9150509250929050565b6108ea81610ced565b82525050565b6109016108fc82610ced565b610d81565b82525050565b61091081610cff565b82525050565b61091f81610d0b565b82525050565b600061093082610cb5565b61093a8185610cc0565b935061094a818560208601610d4e565b61095381610daf565b840191505092915050565b600061096982610cb5565b6109738185610cd1565b9350610983818560208601610d4e565b80840191505092915050565b600061099a82610caa565b6109a48185610cd1565b93506109b4818560208601610d4e565b80840191505092915050565b60006109cd601683610cdc565b91507f4578637574696e67204d6574615478204661696c6564000000000000000000006000830152602082019050919050565b6000610a0d600d83610cdc565b91507f6e6f6e636520746f6f206c6f77000000000000000000000000000000000000006000830152602082019050919050565b6000610a4d601d83610cdc565b91507f546f6f206d616e792062617463686564207472616e73616374696f6e730000006000830152602082019050919050565b610a91610a8c82610d35565b610da5565b82525050565b6000610aa382866108f0565b601482019150610ab38285610a80565b602082019150610ac3828461095e565b9150819050949350505050565b6000610adc828461098f565b915081905092915050565b6000602082019050610afc60008301846108e1565b92915050565b6000602082019050610b176000830184610907565b92915050565b6000604082019050610b326000830185610916565b8181036020830152610b448184610925565b90509392505050565b60006020820190508181036000830152610b66816109c0565b9050919050565b60006020820190508181036000830152610b8681610a00565b9050919050565b60006020820190508181036000830152610ba681610a40565b9050919050565b6000604051905081810181811067ffffffffffffffff82111715610bd057600080fd5b8060405250919050565b600067ffffffffffffffff821115610bf157600080fd5b602082029050602081019050919050565b600067ffffffffffffffff821115610c1957600080fd5b602082029050602081019050919050565b600067ffffffffffffffff821115610c4157600080fd5b602082029050602081019050919050565b600067ffffffffffffffff821115610c6957600080fd5b601f19601f8301169050602081019050919050565b600067ffffffffffffffff821115610c9557600080fd5b601f19601f8301169050602081019050919050565b600081519050919050565b600081519050919050565b600082825260208201905092915050565b600081905092915050565b600082825260208201905092915050565b6000610cf882610d15565b9050919050565b60008115159050919050565b6000819050919050565b600073ffffffffffffffffffffffffffffffffffffffff82169050919050565b6000819050919050565b82818337600083830152505050565b60005b83811015610d6c578082015181840152602081019050610d51565b83811115610d7b576000848401525b50505050565b6000610d8c82610d93565b9050919050565b6000610d9e82610dc0565b9050919050565b6000819050919050565b6000601f19601f8301169050919050565b60008160601b9050919050565b610dd681610ced565b8114610de157600080fd5b50565b610ded81610d0b565b8114610df857600080fd5b50565b610e0481610d35565b8114610e0f57600080fd5b5056fea265627a7a72305820675fac2da4d83f8076562cc3b227d5ee761f090ca895e548e954c662ee19456a6c6578706572696d656e74616cf50037",
  "source": "pragma solidity >=0.4.21 <0.6.0;\npragma experimental ABIEncoderV2;\n\nimport './libs/ECTools.sol';\n\n/// @title  Wallet\n/// @author Nico Vergauwen <vergauwennico@gmail.com>\n/// @notice Wallet contract that can execute meta transactions on behalf of authorized signers\ncontract Wallet {\n\n    /// @notice master owner \n    address payable master;\n\n    /// @notice nonce\n    uint256 nonce; \n\n    /// @dev Access modifier that requires 'msg.sender' to be 'master'\n    modifier onlyMaster() {\n        require(msg.sender == master, \"Unauthorized\");\n        _;\n    }\n\n    /// @dev Access modifier that checks whether meta transactions are signed by authorized EOA's\n    modifier onlyMasterOrActor(address[] memory target, uint256[] memory value, bytes[] memory data, bytes[] memory dataHashSignature) {\n\t\tfor(uint i=0; i< target.length; i++) {\n            require(isValidSignature(target[i], value[i], data[i], dataHashSignature[i]));\n\t\t}\n\t\t_;\n\t}\n\n    /// @notice Sets the master address upon deployment\n    /// @param _master (address) Ethereum address for the master \n    constructor(address payable _master) public {\n        master = _master;\n    }\n\n    /// @notice Fallback \n    function() external payable {}\n\n    /// @notice Get the signer of a transaction through ecrecover\n    /// @param _raw (bytes32) keccak256 hash of the ABI encoded transaction data \n    /// @param _sig (bytes) the signature resulting from signing 'raw'\n    /// @return signer (address) the EOA that signed the data \n    function getSigner(bytes32 _raw, bytes memory _sig) public pure returns(address signer) {\n\t\treturn ECTools.prefixedRecover(_raw, _sig);\n\t}\n\n    /// @notice Checks whether the signer is an authorized EOA\n    /// @param _target (address) contract target address \n    /// @param _value (uint256) Wei amount being send in the transaction \n    /// @param _data (bytes) data being send in the transaction \n    /// @param _sig (bytes) the signature of the transaction data \n    /// @return isValid (bool) true/false based on whether the signer is master or an actor that has access rights to the method at 'target'\n    function isValidSignature(address _target, uint256 _value, bytes memory _data, bytes memory _sig) public view returns (bool isValid) {\n        bytes32 dataHash = keccak256(abi.encodePacked(_target, _value, _data));\n        address signer = getSigner(dataHash, _sig);\n        bytes4 method;\n        assembly {\n            method := mload(add(_data, 0x20))\n        }\n        return (signer == master);\n    }\n\n    /// @notice Execute a batch of meta transactions atomically\n    /// @dev Anyone can execute this but only transactions signed by master or actor (if valid method) are accepted \n    /// @param _target (address[]) Array of contract addresses\n    /// @param _value (uint256[]) Array of wei amounts being sent in the respective transactions \n    /// @param _data (bytes[]) Array of ABI encoded transaction data \n    /// @param _dataHashSignature (bytes[]) Array of transaction signatures for the respective transaction data\n    /// @return (bool) returns true if all transactions in the batch succeeded\n\tfunction execute(address[] memory _target, uint256[] memory _value, bytes[] memory _data, bytes[] memory _dataHashSignature, uint256[] memory _nonce) public onlyMasterOrActor(_target, _value, _data, _dataHashSignature) returns (bool) {\n\t\trequire(_target.length <= 8, 'Too many batched transactions');\n        for(uint i=0; i< _target.length; i++) {\n            require(_nonce[i]>nonce, \"nonce too low\");\n\t\t\t(bool success,) = _target[i].call.value(_value[i])(_data[i]);\n            nonce++;\n\t\t\trequire(success, 'Excuting MetaTx Failed');\n\t\t}\n\t\treturn true;\n    }\n}",
  "sourcePath": "/Users/nico/Desktop/ethberlin/eth-wallet/contracts/Wallet.sol",
  "compiler": {
    "name": "solc",
    "version": "0.5.8+commit.23d335f2.Emscripten.clang"
  },
  "schemaVersion": "3.0.11",
  "updatedAt": "2019-08-23T21:36:47.628Z",
  "devdoc": {
    "author": "Nico Vergauwen <vergauwennico@gmail.com>",
    "methods": {
      "constructor": {
        "params": {
          "_master": "(address) Ethereum address for the master "
        }
      },
      "execute(address[],uint256[],bytes[],bytes[],uint256[])": {
        "details": "Anyone can execute this but only transactions signed by master or actor (if valid method) are accepted ",
        "params": {
          "_data": "(bytes[]) Array of ABI encoded transaction data ",
          "_dataHashSignature": "(bytes[]) Array of transaction signatures for the respective transaction data",
          "_target": "(address[]) Array of contract addresses",
          "_value": "(uint256[]) Array of wei amounts being sent in the respective transactions "
        },
        "return": "(bool) returns true if all transactions in the batch succeeded"
      },
      "getSigner(bytes32,bytes)": {
        "params": {
          "_raw": "(bytes32) keccak256 hash of the ABI encoded transaction data ",
          "_sig": "(bytes) the signature resulting from signing 'raw'"
        },
        "return": "signer (address) the EOA that signed the data "
      },
      "isValidSignature(address,uint256,bytes,bytes)": {
        "params": {
          "_data": "(bytes) data being send in the transaction ",
          "_sig": "(bytes) the signature of the transaction data ",
          "_target": "(address) contract target address ",
          "_value": "(uint256) Wei amount being send in the transaction "
        },
        "return": "isValid (bool) true/false based on whether the signer is master or an actor that has access rights to the method at 'target'"
      }
    },
    "title": "Wallet"
  },
  "userdoc": {
    "methods": {
      "constructor": "Sets the master address upon deployment",
      "execute(address[],uint256[],bytes[],bytes[],uint256[])": {
        "notice": "Execute a batch of meta transactions atomically"
      },
      "getSigner(bytes32,bytes)": {
        "notice": "Get the signer of a transaction through ecrecover"
      },
      "isValidSignature(address,uint256,bytes,bytes)": {
        "notice": "Checks whether the signer is an authorized EOA"
      }
    },
    "notice": "Wallet contract that can execute meta transactions on behalf of authorized signers"
  }
}